:100000000EC015C014C013C012C011C010C00FC064
:100010000EC00DC00CC00BC00AC009C008C011241E
:100020001FBECFE5D2E0DEBFCDBF1AD050C0E8CFB3
:100030000F931F9300E010E0980106171707280799
:10004000390759F0EFECF7E03197F1F700C0000005
:100050000F5F1F4F2F4F3F4FF0CF1F910F9108950C
:10006000F89480E886BD16BC80E381BF8AE187BB37
:1000700098E02AE038E18EE198BB18BA8150E1F7A8
:100080008EE128BB18BA8150E1F78EE198BB18BA0F
:100090008150E1F745ED4A95F1F7000038BB8150FA
:1000A00018BA8111FBCFE5EDEA95F1F7000098BB96
:1000B000815018BA8111FBCFF5EDFA95F1F70000E8
:1000C000EFE1FEE43197F1F700C00000D4CFF894DF
:0200D000FFCF60
:00000001FF
