:100000000EC015C014C013C012C011C010C00FC064
:100010000EC00DC00CC00BC00AC009C008C011241E
:100020001FBECFE5D2E0DEBFCDBF1AD03FC0E8CFC4
:100030000F931F9300E010E0980106171707280799
:10004000390759F0EFECF7E03197F1F700C0000005
:100050000F5F1F4F2F4F3F4FF0CF1F910F9108950C
:10006000F89480E886BD16BC80E681BF80E187BB3E
:100070009AE088BB18BA9150E1F795E19A95F1F7AB
:1000800000009AE088BB18BA9150E1F7EAE2EA95DD
:10009000F1F700C094E188BB18BA9150E1F7EFE1A5
:1000A000FEE43197F1F700C00000E2CFF894FFCFF3
:00000001FF
