:100000000EC015C014C013C012C011C010C00FC064
:100010000EC00DC00CC00BC00AC009C008C011241E
:100020001FBECFE5D2E0DEBFCDBF1AD03AC0E8CFC9
:100030000F931F9300E010E0980106171707280799
:10004000390759F0EFECF7E03197F1F700C0000005
:100050000F5F1F4F2F4F3F4FF0CF1F910F9108950C
:10006000F89480E886BD16BC80E381BF8AE187BB37
:1000700090E122E132E086E198BB18BA8150E1F7C5
:1000800086E128BB18BA8150E1F786E138BB18BA7F
:100090008150E1F7EFE1FEE43197F1F700C0000095
:0600A000EACFF894FFCF47
:00000001FF
