:100000000EC015C014C013C012C011C010C00FC064
:100010000EC00DC00CC00BC00AC009C008C011241E
:100020001FBECFE5D2E0DEBFCDBF1AD06EC0E8CF95
:100030000F931F9300E010E0980106171707280799
:10004000390759F0EFECF7E03197F1F700C0000005
:100050000F5F1F4F2F4F3F4FF0CF1F910F9108950C
:10006000F89480E886BD16BC82E481BF8AE187BB34
:1000700032E04AE058E088E190E124E138BB18BA68
:100080002150E1F724E148BB18BA2150E1F724E1FF
:1000900058BB18BA2150E1F724E188BB18BA2150A7
:1000A000E1F724E198BB18BA2150E1F724E188BBBD
:1000B00018BA2150E1F724E198BB18BA2150E1F7B2
:1000C00024E188BB18BA2150E1F724E198BB18BAA3
:1000D0002150E1F724E188BB18BA2150E1F724E16F
:1000E00098BB18BA2150E1F724E188BB18BA215017
:1000F000E1F724E198BB18BA2150E1F7EFEFF9EFEF
:0E0100003197F1F700C00000B8CFF894FFCFA0
:00000001FF
