:100000000EC028C027C026C025C024C023C022C0DF
:1000100021C020C01FC01EC01DC01CC01BC0112499
:100020001FBECFE5D2E0DEBFCDBF10E0A0E6B0E05E
:10003000ECE3F1E002C005900D92AE36B107D9F7BE
:1000400020E0AEE6B0E001C01D92A437B207E1F7B0
:1000500047D072C0D5CF0F931F9300E010E09801F6
:10006000061717072807390759F0EFECF7E0319723
:10007000F1F700C000000F5F1F4F2F4F3F4FF0CF31
:100080001F910F910895769BFECF8FB980E48EB9B2
:100090000895F9DF80E090E008958A3010F4805DE3
:1000A00001C0895CF0CFCF93C82F82958F70F5DFA8
:1000B0008C2F8F70CF91F1CFCF93C82F892FF3DF83
:1000C0008C2FCF91F0CF87B38A7F87BBB99A88E115
:1000D0008DB980E690E09093710080937000089550
:1000E000F89480E886BD16BC82E481BF8AE187BBB4
:1000F00020E132E192E04AE084E128BB18BA815065
:10010000E1F783E238BB18BA8150E1F789E198BB87
:1001100018BA8150E1F78DE248BB18BA8150E1F777
:100120008CE398BB18BA8150E1F7EFEFF9EF319704
:0C013000F1F700C00000E0CFF894FFCF12
:0E013C0000000002000000004900000000006A
:00000001FF
